S00D00004D4F544F522E7372656386
S11300000C942A000C943C000C943C000C943C008E
S11300100C94E4020C94A9020C943C000C943C0053
S11300200C943C000C943C000C943C000C943C005C
S11300300C943C000C943C000C943C000C943C004C
S11300400C943C000C943C000C943C000C943C003C
S11300500C943C0011241FBECFE5D8E0DEBFCDBF19
S113006020E0A0E6B0E001C01D92AA36B207E1F795
S11300700E948A010C9421030C9400000E945C01EC
S11300800895843008F087C0683008F086C0423094
S113009008F085C0813031F138F0823009F440C075
S11300A0833009F45BC07DC0442379F0413009F00A
S11300B07AC02AB381E090E002C0880F991F6A9544
S11300C0E2F7822B8ABB81E008952AB381E090E0B5
S11300D002C0880F991F6A95E2F7809582238ABB34
S11300E081E00895442379F0413009F05EC027B3DC
S11300F081E090E002C0880F991F6A95E2F7822B95
S113010087BB81E0089527B381E090E002C0880FA7
S1130110991F6A95E2F78095822387BB81E0089551
S1130120442379F0413009F042C024B381E090E0E7
S113013002C0880F991F6A95E2F7822B84BB81E085
S1130140089524B381E090E002C0880F991F6A9556
S1130150E2F78095822384BB81E00895442371F003
S1130160413039F521B381E090E002C0880F991F36
S11301706A95E2F7822B81BB81E0089521B381E087
S113018090E002C0880F991F6A95E2F78095822358
S113019081BB81E0089580E0089580E0089580E0C7
S11301A0089581E0089580E0089580E0089580E056
S11301B0089580E00895843008F07CC0683008F029
S11301C079C0423008F076C0813019F130F08230C5
S11301D0E1F1833009F454C06DC0442371F041301F
S11301E009F068C02BB381E090E002C0880F991F2A
S11301F06A95E2F7822B8BBB5DC02BB381E090E064
S113020002C0880F991F6A95E2F7809582238BBB01
S113021051C0442371F0413009F04CC028B381E04F
S113022090E002C0880F991F6A95E2F7822B88BB81
S113023041C028B381E090E002C0880F991F6A95FD
S1130240E2F78095822388BB35C0442369F04130AE
S113025089F525B381E090E002C0880F991F6A9563
S1130260E2F7822B85BB26C025B381E090E002C073
S1130270880F991F6A95E2F78095822385BB1AC07F
S1130280442369F04130B1F422B381E090E002C02C
S1130290880F991F6A95E2F7822B82BB0BC022B3A9
S11302A081E090E002C0880F991F6A95E2F780957B
S11302B0822382BB81E00895813079F028F0823076
S11302C0A9F08330E1F024C089B390E002C0959591
S11302D087956A95E2F78170089586B390E002C02D
S11302E0959587956A95E2F78170089583B390E0B8
S11302F002C0959587956A95E2F78170089580B359
S113030090E002C0959587956A95E2F7817008950B
S113031080E0089581E00E94C40160E070E083E021
S113032090E00E943E00019719F40E947002F5CFFC
S113033061E070E083E090E00E943E00019719F4D0
S11303400E947902EACF62E070E083E090E00E94CC
S11303503E00019719F40E948102DFCF63E070E050
S113036083E090E00E943E00019719F40E94890204
S1130370D4CF64E070E083E090E00E943E000197F7
S113038061F60E946902C9CFCF93C82F41E060E0B3
S113039082E00E94410041E060E082E00E9441006E
S11303A041E063E082E00E94410041E064E082E0D9
S11303B00E94410041E065E082E00E94410041E08A
S11303C066E082E00E94410040E060E083E00E9439
S11303D0410040E061E083E00E94410040E062E0CF
S11303E083E00E94410040E063E083E00E9441001A
S11303F040E064E083E00E9441000E9492020E9477
S11304009F02C13019F0C23039F00BC041E060E006
S113041082E00E94DB0005C041E060E082E00E94CF
S1130420DB00CF910895813019F08230E1F0089516
S1130430613019F0623061F0089541E063E082E0D8
S11304400E94DB0040E064E082E00E94DB0008954B
S113045041E064E082E00E94DB0040E063E082E08F
S11304600E94DB000895613019F0623061F0089554
S113047041E065E082E00E94DB0040E066E082E06B
S11304800E94DB00089541E066E082E00E94DB0008
S113049040E065E082E00E94DB000895813019F0BD
S11304A0823061F0089540E063E082E00E94DB0066
S11304B040E064E082E00E94DB00089540E065E0F3
S11304C082E00E94DB0040E066E082E00E94DB0004
S11304D0089581E00E944E0282E00E944E02089537
S11304E061E081E00E94130261E082E00E94130255
S11304F0089562E081E00E94130282E00E944E02AD
S1130500089562E082E00E94130281E00E944E029C
S1130510089562E081E00E94130262E082E00E949A
S11305201302089585B5806485BD85B5886085BD51
S113053085B58F7E85BD85B5806285BD089585B5F9
S11305408E7F85BD85B58D7F85BD85B5846085BD70
S113055008951F920F920FB60F9211242F933F9379
S11305604F935F936F937F938F939F93AF93BF93B7
S1130570EF93FF93809162009091630001969093B2
S1130580630080936200813D934069F481E784BDF8
S11305901092630010926200E0916800F09169008B
S11305A0309709F00995FF91EF91BF91AF919F9119
S11305B08F917F916F915F914F913F912F910F9008
S11305C00FBE0F901F9018951F920F920FB60F92A7
S11305D011242F933F934F935F936F937F938F9344
S11305E09F93AF93BF93EF93FF938091600090919B
S11305F061000196909361008093600020916400F3
S1130600309165008217930759F41092610010929B
S11306106000E0916600F0916700309709F0099559
S1130620FF91EF91BF91AF919F918F917F916F91C6
S11306305F914F913F912F910F900FBE0F901F909C
S10906401895F894FFCFA9
S9030000FC
