:020000040800F2
:100000006006002099010008A1010008A301000872
:10001000A5010008A7010008A901000800000000D0
:10002000000000000000000000000000AB0100081C
:10003000AD01000800000000AF010008B101000898
:10004000B3010008B3010008B3010008B3010008C0
:10005000B3010008B3010008B3010008B3010008B0
:10006000B3010008B3010008B3010008B3010008A0
:10007000B3010008B3010008B3010008B301000890
:10008000B3010008B3010008B3010008B301000880
:10009000B3010008B3010008B3010008B301000870
:1000A000B3010008B3010008B3010008B301000860
:1000B000B3010008B3010008B3010008B301000850
:1000C000B3010008B3010008B3010008B301000840
:1000D000B3010008B3010008B3010008B301000830
:1000E000B3010008B3010008B301000800F002F8F2
:1000F00000F042F814A696E8000CB244B344DA4586
:1001000001D100F039F8BAE80F000FA696E83000E8
:10011000A5EB040504EB0607AAEB0704A7F101070A
:100120004FEA15154FEA3414A4F10104AC4201D38F
:1001300000F022F813F0010F18BFFB1A43F001037F
:1001400000F001F8DBE718474407000054070000FF
:10015000704700000023002400250026103A28BF25
:1001600078C1FBD8520728BF30C148BF0B60704729
:100170001FB51FBD10B510BD00F031F81146FFF7D7
:10018000F7FF00F061FB00F04FF803B4FFF7F2FF58
:1001900003BC00F057F800000948804709480047B1
:1001A000FEE7FEE7FEE7FEE7FEE7FEE7FEE7FEE727
:1001B000FEE7FEE704480549054A064B7047000084
:1001C000B9070008ED00000860000020600600206C
:1001D000600200206002002070477047704775463B
:1001E00000F02CF8AE4605006946534620F00700A3
:1001F000854618B020B5FFF7DDFFBDE820404FF081
:1002000000064FF000074FF000084FF0000BAC461F
:10021000ACE8C009ACE8C009ACE8C009ACE8C0096A
:1002200021F007018D46704710B50446AFF30080FA
:100230002046BDE81040FFF7A8BF00000048704707
:100240000000002001491820ABBEFEE72600020096
:100250007047000082B08DF807008DF806108DF809
:10026000052000208DF804009DF80700014600914C
:1002700048B1FFE70098012850D0FFE70098022816
:1002800000F09780E0E09DF8060007281BDCFFE700
:100290009DF8060081000F2000FA01F240F60001EF
:1002A000C4F201010868904308609DF805009DF8BC
:1002B0000620920000FA02F208681043086001204C
:1002C0008DF8040029E09DF806000F2820DCFFE7E8
:1002D0009DF8060008388DF806009DF8060081009C
:1002E0000F2000FA01F240F60401C4F2010108688F
:1002F000904308609DF805009DF80620920000FAE2
:1003000002F208681043086001208DF8040003E041
:1003100000208DF80400FFE7FFE799E09DF8060054
:1003200007281BDCFFE79DF8060081000F2000FA7C
:1003300001F240F60041C4F20101086890430860F0
:100340009DF805009DF80620920000FA02F2086868
:100350001043086001208DF8040029E09DF8060094
:100360000F2820DCFFE79DF8060008388DF806000E
:100370009DF8060081000F2000FA01F240F60441CA
:10038000C4F201010868904308609DF805009DF8DB
:100390000620920000FA02F208681043086001206B
:1003A0008DF8040003E000208DF80400FFE7FFE76C
:1003B0004EE09DF8060007281BDCFFE79DF80600CD
:1003C00081000F2000FA01F241F20001C4F20101A4
:1003D0000868904308609DF805009DF8062092008B
:1003E00000FA02F208681043086001208DF804004A
:1003F00029E09DF806000F2820DCFFE79DF80600A5
:1004000008388DF806009DF8060081000F2000FADC
:1004100001F241F20401C4F201010868904308604E
:100420009DF805009DF80620920000FA02F2086887
:100430001043086001208DF8040003E000208DF8CF
:100440000400FFE7FFE703E000208DF80400FFE76A
:100450009DF8040002B0704786B08DF816008DF844
:1004600015108DF8142000208DF813009DF815004C
:10047000102805DBFFE79DF813008DF817009DE0BD
:100480009DF816000146039140B1FFE7039801284B
:1004900031D0FFE7039802285AD086E09DF8140077
:1004A0000146029198B1FFE7029801281ED1FFE7AB
:1004B0009DF81510012000FA01F340F60C02C4F279
:1004C00001021168194311608DF8130012E09DF8C4
:1004D0001510012000FA01F340F60C02C4F20102EB
:1004E0001168994311608DF8130003E000208DF826
:1004F0001300FFE75DE09DF814000146019198B1FB
:10050000FFE7019801281ED1FFE79DF81510012093
:1005100000FA01F340F60C42C4F2010211681943DB
:1005200011608DF8130012E09DF81510012000FAFB
:1005300001F340F60C42C4F20102116899431160C4
:100540008DF8130003E000208DF81300FFE730E082
:100550009DF814000146009198B1FFE7009801282A
:100560001ED1FFE79DF81510012000FA01F341F2BA
:100570000C02C4F201021168194311608DF81300D6
:1005800012E09DF81510012000FA01F341F20C026F
:10059000C4F201021168994311608DF8130003E061
:1005A00000208DF81300FFE703E000208DF8130012
:1005B000FFE79DF813008DF81700FFE79DF817007F
:1005C00006B0704782B08DF807008DF806109DF8D0
:1005D00007000146009140B1FFE70098012811D0C3
:1005E000FFE7009802281AD026E09DF806100120A7
:1005F00000FA01F241F21401C4F20201086810434A
:1006000008601AE09DF80610012000FA01F241F29C
:100610001C01C4F202010868104308600DE09DF857
:100620000610012000FA01F241F21801C4F20201A1
:1006300008681043086000E0FFE702B07047000060
:1006400041F20001C4F20201086820F48020086031
:10065000086840F480300860FFE741F20000C4F20F
:1006600002000068400CC00708B9FFE7F5E741F257
:100670000401C4F2020101200860086820F00300B0
:100680000860086840F001000860704780B500F01D
:1006900001F880BD84B000200390029041F2000177
:1006A000C4F20201086840F480300860FFE741F2BC
:1006B0000000C4F20200006800F4003002900398C9
:1006C00001300390FFE702990020019039B9FFE75C
:1006D0000398B0F5A06018BF01200190FFE70198D2
:1006E000C0070028E3D1FFE741F20000C4F2020096
:1006F00000688003002803D5FFE70120029002E094
:1007000000200290FFE70298012851D1FFE742F252
:100710000001C4F20201086840F010000860086897
:1007200020F007000860086840F00200086041F20D
:100730000401C4F2020100910868086008680860BA
:10074000086840F480600860086820F47C10086045
:10075000086840F4E810086041F20001C4F20201A8
:10076000086840F080700860FFE741F20000C4F2C2
:10077000020000688001002801D4FFE7F5E741F29C
:100780000401C4F20201086820F003000860086850
:1007900040F002000860FFE741F20400C4F20200EA
:1007A000006800F00C00082801D0FFE7F4E700E043
:1007B000FFE704B07047000080B541F20002C4F2C8
:1007C0000202106840F00100106041F20401C4F21E
:1007D000020108680023CFF6FF0318400860106884
:1007E0004FF6FF73CFF6F66318401060106820F4E0
:1007F00080201060086820F4FE00086041F20801C3
:10080000C4F202014FF41F000860FFF73FFF4EF6ED
:100810000851CEF200014FF00060086080BD00007A
:1008200081B000200090FFE7009848F29F61C0F27D
:100830000101884205DCFFE7FFE7009801300090E6
:10084000F2E701B07047000080B584B0002002904C
:100850000390FFF7F5FE02210846FFF7B3FE02986A
:1008600005210122FFF7F6FCFFE70020019005219A
:1008700000910122FFF7F0FDFFF7D2FF0099019AE6
:100880001046FFF7E9FDFFF7CBFFEEE79C080008F5
:0C08900000000020600600005401000879
:040000050800019955
:00000001FF
